:020000040800F2
:1000000060060020B1010008B9010008BB0100082A
:10001000BD010008BF010008C10100080000000088
:10002000000000000000000000000000C301000804
:10003000C501000800000000C7010008C901000850
:10004000CB010008CB010008CB010008CB01000860
:10005000CB010008CB010008CB010008CB01000850
:10006000CB010008CB010008CB010008CB01000840
:10007000CB010008CB010008CB010008CB01000830
:10008000CB010008CB010008CB010008CB01000820
:10009000CB010008CB010008CB010008CB01000810
:1000A000CB010008CB010008CB010008CB01000800
:1000B000CB010008CB010008CB010008CB010008F0
:1000C000CB010008CB010008CB010008CB010008E0
:1000D000CB010008CB010008CB010008CB010008D0
:1000E000CB010008CB010008CB010008CB010008C0
:1000F000CB010008CB010008CB010008CB010008B0
:10010000CB010008CB010008CB010008CB0100089F
:10011000CB010008CB010008CB010008CB0100088F
:10012000CB010008CB010008CB010008CB0100087F
:1001300000F002F800F02CF80AA090E8000C8244CD
:100140008344AAF10107DA4501D100F021F8AFF2AA
:10015000090EBAE80F0013F0010F18BFFB1A43F0A5
:10016000010318476C0300007C03000000230024F7
:1001700000250026103A28BF78C1FBD8520728BFB7
:1001800030C148BF0B6070471FB51FBD10B510BD13
:1001900000F031F81146FFF7F7FF00F069F900F0C1
:1001A0004FF803B4FFF7F2FF03BC00F057F800006C
:1001B0000948804709480047FEE7FEE7FEE7FEE7FB
:1001C000FEE7FEE7FEE7FEE7FEE7FEE70448054937
:1001D000054A064B70470000E9030008310100089A
:1001E0006000002060060020600200206002002005
:1001F000704770477047754600F02CF8AE46050012
:100200006946534620F00700854618B020B5FFF731
:10021000DDFFBDE820404FF000064FF000074FF033
:1002200000084FF0000B21F00701AC46ACE8C00914
:10023000ACE8C009ACE8C009ACE8C0098D4670471D
:1002400010B50446AFF300802046BDE81040FFF72C
:10025000A8BF000000487047000000200149182096
:10026000ABBEFEE72600020070470000F0B5CA787A
:10027000002502F00F03D20601D58A7813430A78CD
:100280004FF00F0E12F0FF0F4FF001021CD0046868
:100290000F8802FA05F63740B74211D14FEA850CB4
:1002A0000EFA0CF724EA070703FA0CF43C43CF7864
:1002B000282F02D0482F02D002E0466100E00661FC
:1002C0006D1C082DE4D304600C88FF2C1ED94468F3
:1002D0005FF0000606F1080702FA07F50F882F40C5
:1002E000AF420FD14FEA860C0EFA0CF7BC4303FA6B
:1002F0000CF73C43CF78282F00D14561CF78482FA9
:1003000000D10561761C082EE4D34460F0BD02469E
:10031000002092680A4200D0012070470AB10161B2
:100320007047416170470000044A0029916901D07B
:10033000014300E0814391617047000000100240DA
:100340000CB50021264801910091026842F48032E8
:1003500002604FF4A063026802F400320092019A36
:10036000521C0192009A12B9019A9A42F3D1026882
:10037000920333D5012100911A490A6842F0100214
:100380000A600A6822F007020A600A6842F0020264
:100390000A604168416041684160416841F48061A0
:1003A0004160416821F47C114160416841F4E811E9
:1003B0004160016841F08071016001688901FCD5EC
:1003C000416821F003014160416841F00201416050
:1003D0004168C1F381010229FAD10CBD00910CBD25
:1003E00000100240002002400F4810B5016841F0A3
:1003F0000101016041680D4A1140416001680C4AE9
:1004000011400160016821F480210160416821F4FC
:10041000FE0141604FF41F018160FFF791FF054924
:100420004FF00060086010BD001002400000FFF8AF
:10043000FFFFF6FE08ED00E000B502464FF47A73C8
:1004400002E0184600F003F8521EFAD200BD00EB9D
:10045000C000C1004FF0E020416100218161052111
:1004600001610169C903FCD50421016170470000E5
:100470001CB501214020FFF757FF10218DF8031014
:100480002021ADF800100120104C8DF8020001A9C8
:100490002046FFF7EBFE69462046FFF7E7FE1021F6
:1004A0002046FFF734FF08B1002209E00A20FFF7D9
:1004B000C3FF10212046FFF72AFF0028EFD10122B9
:1004C00020212046FFF72AFFE9E70000001801403D
:1004D000E004000800000020600600006C01000835
:04000005080001B13D
:00000001FF
